:0300000002088271
:0C088200787FE4F6D8FD758107020800BD
:10080000D293C294C290D291D292C280120873C283
:1008100081D280120873C282D281120873C283D23D
:1008200082120873C284D283120873C285D28412E2
:100830000873C286D285120873C287D286120873E3
:10084000C286D287120873C285D286120873C28408
:10085000D285120873C283D284120873C282D283F3
:10086000120873C281D282120873C280D281120828
:03087000738097FB
:0E087300E4FFFE0FBF00010EBE75F8BF30F5AA
:010881002254
:00000001FF
