:0300000002097181
:0C097100787FE4F6D8FD75811D0208F6C1
:10095D0000C000F900A400B000990092008200F8D8
:04096D000080009076
:1008F600E4F508F509780A7C00FD7BFF7A09795D45
:10090600FE7F141208D0E4FFFEC290C294C291C2C8
:1009160092D293758901758CB8F58AD28C308DFD8B
:10092600C28D758CB8E4F58A0509E50970020508DB
:10093600C39432E50894004014E4F508F509EF2560
:10094600E0240AF808E6F5800FBF00010EEF640AFE
:070956004E70CAFEFF80C6CF
:10080000E709F608DFFA8046E709F208DFFA803EDA
:1008100088828C83E709F0A3DFFA8032E309F608C7
:10082000DFFA8078E309F208DFFA807088828C832F
:10083000E309F0A3DFFA806489828A83E0A3F608E3
:10084000DFFA805889828A83E0A3F208DFFA804CBD
:1008500080D280FA80C680D4806980F28033801094
:1008600080A680EA809A80A880DA80E280CA8033FD
:1008700089828A83ECFAE493A3C8C582C8CCC58375
:10088000CCF0A3C8C582C8CCC583CCDFE9DEE78045
:100890000D89828A83E493A3F608DFF9ECFAA9F0C4
:1008A000EDFB2289828A83ECFAE0A3C8C582C8CC1A
:1008B000C583CCF0A3C8C582C8CCC583CCDFEADE33
:1008C000E880DB89828A83E493A3F208DFF980CC95
:1008D00088F0EF60010E4E60C388F0ED2402B4048E
:1008E0000050B9F582EB2402B4040050AF23234535
:0608F00082239008507302
:00000001FF
